:020000040000FA
:020000000528D1
:080008006F280530AD008801EE
:10001000860187012530A0004030A100B330A20046
:100020004E30A3002D30A4006B30A50083168B1733
:100030008B168C160B17181207108717880186016C
:100040001815873081001930990083123D308100E6
:10005000981718162C1C2A282D2803010230A600F8
:1000600003102708A90028180314270CA700031061
:1000700029180314280CA80027082406A70028081C
:100080002506A80003102708AA0028180314270C27
:10009000A70003102A180314280CA800270822061A
:1000A000A70028082306A80003102708AB0028187B
:1000B0000314270CA70003102B180314280CA80006
:1000C00027082006A70028082106A8000310A60B71
:1000D000312827088800280886002C102A288C1A26
:1000E00073280B197B281A08A8008C1E75281A087B
:1000F000A7002C1409000B11AD0B832801308706D3
:0C0100000530AD0009003D308100090011
:00000001FF
