:020000040000FA
:020000000528D1
:080008008A2887018801AC0180
:100010002530A1004030A000B330A3004E30A20034
:100020002D30A5006B30A400831601170B168B171B
:100030000B17181298161815193099000F308800F0
:100040000713831298172C1C2328262808182E28FB
:100050002928881C33281E30A800392888183628FB
:100060000630A80039287D30A80039283930A8008A
:100070003928081D3C284128881D46283E30A70005
:100080004C28881949284F30A7004C287930A70000
:100090004C287F30A7004C280230A6000301031033
:1000A00028082106A800A90027082006A700A71BEA
:1000B0000314280DA8000310A91B0314270DA70083
:1000C000031028082306A800AA0027082206A70074
:1000D000A71B0314280DA8000310AA1B0314270D47
:1000E000A700031028082506A800AB00270824064F
:1000F000A700A71B0314280DA8000310AB1B0314B3
:10010000270DA7000310A60B5028831603130C1607
:10011000AC01232883128B188F280C1A92282C14D8
:100120008B1009002730840000089900840A040815
:10013000293C031D9428831603130C1209000000A8
:00000001FF
